{
  "_format": "hh-sol-artifact-1",
  "contractName": "CarbonToken",
  "sourceName": "contracts/CarbonToken.sol",
  "abi": [
    {
      "inputs": [
        {
          "internalType": "address",
          "name": "initialOwner",
          "type": "address"
        }
      ],
      "stateMutability": "nonpayable",
      "type": "constructor"
    },
    {
      "inputs": [],
      "name": "ECDSAInvalidSignature",
      "type": "error"
    },
    {
      "inputs": [
        {
          "internalType": "uint256",
          "name": "length",
          "type": "uint256"
        }
      ],
      "name": "ECDSAInvalidSignatureLength",
      "type": "error"
    },
    {
      "inputs": [
        {
          "internalType": "bytes32",
          "name": "s",
          "type": "bytes32"
        }
      ],
      "name": "ECDSAInvalidSignatureS",
      "type": "error"
    },
    {
      "inputs": [
        {
          "internalType": "address",
          "name": "spender",
          "type": "address"
        },
        {
          "internalType": "uint256",
          "name": "allowance",
          "type": "uint256"
        },
        {
          "internalType": "uint256",
          "name": "needed",
          "type": "uint256"
        }
      ],
      "name": "ERC20InsufficientAllowance",
      "type": "error"
    },
    {
      "inputs": [
        {
          "internalType": "address",
          "name": "sender",
          "type": "address"
        },
        {
          "internalType": "uint256",
          "name": "balance",
          "type": "uint256"
        },
        {
          "internalType": "uint256",
          "name": "needed",
          "type": "uint256"
        }
      ],
      "name": "ERC20InsufficientBalance",
      "type": "error"
    },
    {
      "inputs": [
        {
          "internalType": "address",
          "name": "approver",
          "type": "address"
        }
      ],
      "name": "ERC20InvalidApprover",
      "type": "error"
    },
    {
      "inputs": [
        {
          "internalType": "address",
          "name": "receiver",
          "type": "address"
        }
      ],
      "name": "ERC20InvalidReceiver",
      "type": "error"
    },
    {
      "inputs": [
        {
          "internalType": "address",
          "name": "sender",
          "type": "address"
        }
      ],
      "name": "ERC20InvalidSender",
      "type": "error"
    },
    {
      "inputs": [
        {
          "internalType": "address",
          "name": "spender",
          "type": "address"
        }
      ],
      "name": "ERC20InvalidSpender",
      "type": "error"
    },
    {
      "inputs": [
        {
          "internalType": "uint256",
          "name": "deadline",
          "type": "uint256"
        }
      ],
      "name": "ERC2612ExpiredSignature",
      "type": "error"
    },
    {
      "inputs": [
        {
          "internalType": "address",
          "name": "signer",
          "type": "address"
        },
        {
          "internalType": "address",
          "name": "owner",
          "type": "address"
        }
      ],
      "name": "ERC2612InvalidSigner",
      "type": "error"
    },
    {
      "inputs": [
        {
          "internalType": "address",
          "name": "account",
          "type": "address"
        },
        {
          "internalType": "uint256",
          "name": "currentNonce",
          "type": "uint256"
        }
      ],
      "name": "InvalidAccountNonce",
      "type": "error"
    },
    {
      "inputs": [],
      "name": "InvalidShortString",
      "type": "error"
    },
    {
      "inputs": [
        {
          "internalType": "address",
          "name": "owner",
          "type": "address"
        }
      ],
      "name": "OwnableInvalidOwner",
      "type": "error"
    },
    {
      "inputs": [
        {
          "internalType": "address",
          "name": "account",
          "type": "address"
        }
      ],
      "name": "OwnableUnauthorizedAccount",
      "type": "error"
    },
    {
      "inputs": [
        {
          "internalType": "string",
          "name": "str",
          "type": "string"
        }
      ],
      "name": "StringTooLong",
      "type": "error"
    },
    {
      "anonymous": false,
      "inputs": [
        {
          "indexed": true,
          "internalType": "address",
          "name": "owner",
          "type": "address"
        },
        {
          "indexed": true,
          "internalType": "address",
          "name": "spender",
          "type": "address"
        },
        {
          "indexed": false,
          "internalType": "uint256",
          "name": "value",
          "type": "uint256"
        }
      ],
      "name": "Approval",
      "type": "event"
    },
    {
      "anonymous": false,
      "inputs": [
        {
          "indexed": true,
          "internalType": "address",
          "name": "account",
          "type": "address"
        },
        {
          "indexed": false,
          "internalType": "uint256",
          "name": "amount",
          "type": "uint256"
        },
        {
          "indexed": false,
          "internalType": "string",
          "name": "ipfsHash",
          "type": "string"
        }
      ],
      "name": "CertificateMinted",
      "type": "event"
    },
    {
      "anonymous": false,
      "inputs": [],
      "name": "EIP712DomainChanged",
      "type": "event"
    },
    {
      "anonymous": false,
      "inputs": [
        {
          "indexed": true,
          "internalType": "address",
          "name": "seller",
          "type": "address"
        },
        {
          "indexed": false,
          "internalType": "uint256",
          "name": "listingIndex",
          "type": "uint256"
        }
      ],
      "name": "ListingDeleted",
      "type": "event"
    },
    {
      "anonymous": false,
      "inputs": [
        {
          "indexed": true,
          "internalType": "address",
          "name": "previousOwner",
          "type": "address"
        },
        {
          "indexed": true,
          "internalType": "address",
          "name": "newOwner",
          "type": "address"
        }
      ],
      "name": "OwnershipTransferred",
      "type": "event"
    },
    {
      "anonymous": false,
      "inputs": [
        {
          "indexed": true,
          "internalType": "address",
          "name": "seller",
          "type": "address"
        },
        {
          "indexed": false,
          "internalType": "uint256",
          "name": "amountCTKN",
          "type": "uint256"
        },
        {
          "indexed": false,
          "internalType": "uint256",
          "name": "priceETH",
          "type": "uint256"
        },
        {
          "indexed": false,
          "internalType": "uint256",
          "name": "listingIndex",
          "type": "uint256"
        }
      ],
      "name": "TokenListed",
      "type": "event"
    },
    {
      "anonymous": false,
      "inputs": [
        {
          "indexed": true,
          "internalType": "address",
          "name": "buyer",
          "type": "address"
        },
        {
          "indexed": true,
          "internalType": "address",
          "name": "seller",
          "type": "address"
        },
        {
          "indexed": false,
          "internalType": "uint256",
          "name": "amountCTKN",
          "type": "uint256"
        },
        {
          "indexed": false,
          "internalType": "uint256",
          "name": "priceETH",
          "type": "uint256"
        },
        {
          "indexed": false,
          "internalType": "uint256",
          "name": "listingIndex",
          "type": "uint256"
        }
      ],
      "name": "TokenPurchased",
      "type": "event"
    },
    {
      "anonymous": false,
      "inputs": [
        {
          "indexed": true,
          "internalType": "address",
          "name": "from",
          "type": "address"
        },
        {
          "indexed": true,
          "internalType": "address",
          "name": "to",
          "type": "address"
        },
        {
          "indexed": false,
          "internalType": "uint256",
          "name": "value",
          "type": "uint256"
        }
      ],
      "name": "Transfer",
      "type": "event"
    },
    {
      "inputs": [],
      "name": "DOMAIN_SEPARATOR",
      "outputs": [
        {
          "internalType": "bytes32",
          "name": "",
          "type": "bytes32"
        }
      ],
      "stateMutability": "view",
      "type": "function"
    },
    {
      "inputs": [
        {
          "internalType": "address",
          "name": "owner",
          "type": "address"
        },
        {
          "internalType": "address",
          "name": "spender",
          "type": "address"
        }
      ],
      "name": "allowance",
      "outputs": [
        {
          "internalType": "uint256",
          "name": "",
          "type": "uint256"
        }
      ],
      "stateMutability": "view",
      "type": "function"
    },
    {
      "inputs": [
        {
          "internalType": "address",
          "name": "spender",
          "type": "address"
        },
        {
          "internalType": "uint256",
          "name": "value",
          "type": "uint256"
        }
      ],
      "name": "approve",
      "outputs": [
        {
          "internalType": "bool",
          "name": "",
          "type": "bool"
        }
      ],
      "stateMutability": "nonpayable",
      "type": "function"
    },
    {
      "inputs": [
        {
          "internalType": "address",
          "name": "account",
          "type": "address"
        }
      ],
      "name": "balanceOf",
      "outputs": [
        {
          "internalType": "uint256",
          "name": "",
          "type": "uint256"
        }
      ],
      "stateMutability": "view",
      "type": "function"
    },
    {
      "inputs": [
        {
          "internalType": "uint256",
          "name": "value",
          "type": "uint256"
        }
      ],
      "name": "burn",
      "outputs": [],
      "stateMutability": "nonpayable",
      "type": "function"
    },
    {
      "inputs": [
        {
          "internalType": "address",
          "name": "account",
          "type": "address"
        },
        {
          "internalType": "uint256",
          "name": "value",
          "type": "uint256"
        }
      ],
      "name": "burnFrom",
      "outputs": [],
      "stateMutability": "nonpayable",
      "type": "function"
    },
    {
      "inputs": [
        {
          "internalType": "address",
          "name": "seller",
          "type": "address"
        },
        {
          "internalType": "uint256",
          "name": "listingIndex",
          "type": "uint256"
        },
        {
          "internalType": "bytes",
          "name": "signature",
          "type": "bytes"
        }
      ],
      "name": "buyToken",
      "outputs": [],
      "stateMutability": "payable",
      "type": "function"
    },
    {
      "inputs": [],
      "name": "decimals",
      "outputs": [
        {
          "internalType": "uint8",
          "name": "",
          "type": "uint8"
        }
      ],
      "stateMutability": "view",
      "type": "function"
    },
    {
      "inputs": [
        {
          "internalType": "uint256",
          "name": "listingIndex",
          "type": "uint256"
        },
        {
          "internalType": "bytes",
          "name": "signature",
          "type": "bytes"
        }
      ],
      "name": "deleteListing",
      "outputs": [],
      "stateMutability": "nonpayable",
      "type": "function"
    },
    {
      "inputs": [],
      "name": "eip712Domain",
      "outputs": [
        {
          "internalType": "bytes1",
          "name": "fields",
          "type": "bytes1"
        },
        {
          "internalType": "string",
          "name": "name",
          "type": "string"
        },
        {
          "internalType": "string",
          "name": "version",
          "type": "string"
        },
        {
          "internalType": "uint256",
          "name": "chainId",
          "type": "uint256"
        },
        {
          "internalType": "address",
          "name": "verifyingContract",
          "type": "address"
        },
        {
          "internalType": "bytes32",
          "name": "salt",
          "type": "bytes32"
        },
        {
          "internalType": "uint256[]",
          "name": "extensions",
          "type": "uint256[]"
        }
      ],
      "stateMutability": "view",
      "type": "function"
    },
    {
      "inputs": [
        {
          "internalType": "uint256",
          "name": "amountCTKN",
          "type": "uint256"
        },
        {
          "internalType": "uint256",
          "name": "priceETH",
          "type": "uint256"
        },
        {
          "internalType": "bytes",
          "name": "signature",
          "type": "bytes"
        }
      ],
      "name": "listTokenForSale",
      "outputs": [],
      "stateMutability": "nonpayable",
      "type": "function"
    },
    {
      "inputs": [
        {
          "internalType": "address",
          "name": "",
          "type": "address"
        },
        {
          "internalType": "uint256",
          "name": "",
          "type": "uint256"
        }
      ],
      "name": "listings",
      "outputs": [
        {
          "internalType": "uint256",
          "name": "amountCTKN",
          "type": "uint256"
        },
        {
          "internalType": "uint256",
          "name": "priceETH",
          "type": "uint256"
        },
        {
          "internalType": "bool",
          "name": "active",
          "type": "bool"
        }
      ],
      "stateMutability": "view",
      "type": "function"
    },
    {
      "inputs": [
        {
          "internalType": "address",
          "name": "to",
          "type": "address"
        },
        {
          "internalType": "uint256",
          "name": "amount",
          "type": "uint256"
        },
        {
          "internalType": "string",
          "name": "ipfsHash",
          "type": "string"
        },
        {
          "internalType": "bytes",
          "name": "signature",
          "type": "bytes"
        }
      ],
      "name": "mint",
      "outputs": [],
      "stateMutability": "nonpayable",
      "type": "function"
    },
    {
      "inputs": [],
      "name": "name",
      "outputs": [
        {
          "internalType": "string",
          "name": "",
          "type": "string"
        }
      ],
      "stateMutability": "view",
      "type": "function"
    },
    {
      "inputs": [
        {
          "internalType": "address",
          "name": "owner",
          "type": "address"
        }
      ],
      "name": "nonces",
      "outputs": [
        {
          "internalType": "uint256",
          "name": "",
          "type": "uint256"
        }
      ],
      "stateMutability": "view",
      "type": "function"
    },
    {
      "inputs": [],
      "name": "owner",
      "outputs": [
        {
          "internalType": "address",
          "name": "",
          "type": "address"
        }
      ],
      "stateMutability": "view",
      "type": "function"
    },
    {
      "inputs": [
        {
          "internalType": "address",
          "name": "owner",
          "type": "address"
        },
        {
          "internalType": "address",
          "name": "spender",
          "type": "address"
        },
        {
          "internalType": "uint256",
          "name": "value",
          "type": "uint256"
        },
        {
          "internalType": "uint256",
          "name": "deadline",
          "type": "uint256"
        },
        {
          "internalType": "uint8",
          "name": "v",
          "type": "uint8"
        },
        {
          "internalType": "bytes32",
          "name": "r",
          "type": "bytes32"
        },
        {
          "internalType": "bytes32",
          "name": "s",
          "type": "bytes32"
        }
      ],
      "name": "permit",
      "outputs": [],
      "stateMutability": "nonpayable",
      "type": "function"
    },
    {
      "inputs": [],
      "name": "renounceOwnership",
      "outputs": [],
      "stateMutability": "nonpayable",
      "type": "function"
    },
    {
      "inputs": [],
      "name": "symbol",
      "outputs": [
        {
          "internalType": "string",
          "name": "",
          "type": "string"
        }
      ],
      "stateMutability": "view",
      "type": "function"
    },
    {
      "inputs": [],
      "name": "totalSupply",
      "outputs": [
        {
          "internalType": "uint256",
          "name": "",
          "type": "uint256"
        }
      ],
      "stateMutability": "view",
      "type": "function"
    },
    {
      "inputs": [
        {
          "internalType": "address",
          "name": "to",
          "type": "address"
        },
        {
          "internalType": "uint256",
          "name": "value",
          "type": "uint256"
        }
      ],
      "name": "transfer",
      "outputs": [
        {
          "internalType": "bool",
          "name": "",
          "type": "bool"
        }
      ],
      "stateMutability": "nonpayable",
      "type": "function"
    },
    {
      "inputs": [
        {
          "internalType": "address",
          "name": "from",
          "type": "address"
        },
        {
          "internalType": "address",
          "name": "to",
          "type": "address"
        },
        {
          "internalType": "uint256",
          "name": "value",
          "type": "uint256"
        }
      ],
      "name": "transferFrom",
      "outputs": [
        {
          "internalType": "bool",
          "name": "",
          "type": "bool"
        }
      ],
      "stateMutability": "nonpayable",
      "type": "function"
    },
    {
      "inputs": [
        {
          "internalType": "address",
          "name": "newOwner",
          "type": "address"
        }
      ],
      "name": "transferOwnership",
      "outputs": [],
      "stateMutability": "nonpayable",
      "type": "function"
    },
    {
      "inputs": [
        {
          "internalType": "string",
          "name": "newMessage",
          "type": "string"
        }
      ],
      "name": "updateAuthorizedMessage",
      "outputs": [],
      "stateMutability": "nonpayable",
      "type": "function"
    },
    {
      "stateMutability": "payable",
      "type": "receive"
    }
  ],
  "bytecode": "0x6101606040523480156200001257600080fd5b5060405162003e3138038062003e318339818101604052810190620000389190620004fa565b6040518060400160405280600b81526020017f436172626f6e546f6b656e000000000000000000000000000000000000000000815250806040518060400160405280600181526020017f3100000000000000000000000000000000000000000000000000000000000000815250836040518060400160405280600b81526020017f436172626f6e546f6b656e0000000000000000000000000000000000000000008152506040518060400160405280600481526020017f43544b4e000000000000000000000000000000000000000000000000000000008152508160039081620001239190620007a6565b508060049081620001359190620007a6565b505050600073ffffffffffffffffffffffffffffffffffffffff168173ffffffffffffffffffffffffffffffffffffffff1603620001ad5760006040517f1e4fbdf7000000000000000000000000000000000000000000000000000000008152600401620001a491906200089e565b60405180910390fd5b620001be816200029e60201b60201c565b50620001d56006836200036460201b90919060201c565b6101208181525050620001f36007826200036460201b90919060201c565b6101408181525050818051906020012060e08181525050808051906020012061010081815250504660a0818152505062000232620003bc60201b60201c565b608081815250503073ffffffffffffffffffffffffffffffffffffffff1660c08173ffffffffffffffffffffffffffffffffffffffff16815250505050507ff064acadedfca501470edf51421a27289a0bf1fee0b152d52f92f9c9bf39865a6009819055505062000a99565b6000600560009054906101000a900473ffffffffffffffffffffffffffffffffffffffff16905081600560006101000a81548173ffffffffffffffffffffffffffffffffffffffff021916908373ffffffffffffffffffffffffffffffffffffffff1602179055508173ffffffffffffffffffffffffffffffffffffffff168173ffffffffffffffffffffffffffffffffffffffff167f8be0079c531659141344cd1fd0a4f28419497f9722a3daafe3b4186f6b6457e060405160405180910390a35050565b60006020835110156200038a5762000382836200041960201b60201c565b9050620003b6565b826200039c836200048660201b60201c565b6000019081620003ad9190620007a6565b5060ff60001b90505b92915050565b60007f8b73c3c69bb8fe3d512ecc4cf759cc79239f7b179b0ffacaa9a75d522b39400f60e051610100514630604051602001620003fe959493929190620008e7565b60405160208183030381529060405280519060200120905090565b600080829050601f815111156200046957826040517f305a27a9000000000000000000000000000000000000000000000000000000008152600401620004609190620009d3565b60405180910390fd5b805181620004779062000a29565b60001c1760001b915050919050565b6000819050919050565b600080fd5b600073ffffffffffffffffffffffffffffffffffffffff82169050919050565b6000620004c28262000495565b9050919050565b620004d481620004b5565b8114620004e057600080fd5b50565b600081519050620004f481620004c9565b92915050565b60006020828403121562000513576200051262000490565b5b60006200052384828501620004e3565b91505092915050565b600081519050919050565b7f4e487b7100000000000000000000000000000000000000000000000000000000600052604160045260246000fd5b7f4e487b7100000000000000000000000000000000000000000000000000000000600052602260045260246000fd5b60006002820490506001821680620005ae57607f821691505b602082108103620005c457620005c362000566565b5b50919050565b60008190508160005260206000209050919050565b60006020601f8301049050919050565b600082821b905092915050565b6000600883026200062e7fffffffffffffffffffffffffffffffffffffffffffffffffffffffffffffffff82620005ef565b6200063a8683620005ef565b95508019841693508086168417925050509392505050565b6000819050919050565b6000819050919050565b600062000687620006816200067b8462000652565b6200065c565b62000652565b9050919050565b6000819050919050565b620006a38362000666565b620006bb620006b2826200068e565b848454620005fc565b825550505050565b600090565b620006d2620006c3565b620006df81848462000698565b505050565b5b818110156200070757620006fb600082620006c8565b600181019050620006e5565b5050565b601f82111562000756576200072081620005ca565b6200072b84620005df565b810160208510156200073b578190505b620007536200074a85620005df565b830182620006e4565b50505b505050565b600082821c905092915050565b60006200077b600019846008026200075b565b1980831691505092915050565b600062000796838362000768565b9150826002028217905092915050565b620007b1826200052c565b67ffffffffffffffff811115620007cd57620007cc62000537565b5b620007d9825462000595565b620007e68282856200070b565b600060209050601f8311600181146200081e576000841562000809578287015190505b62000815858262000788565b86555062000885565b601f1984166200082e86620005ca565b60005b82811015620008585784890151825560018201915060208501945060208101905062000831565b8683101562000878578489015162000874601f89168262000768565b8355505b6001600288020188555050505b505050505050565b6200089881620004b5565b82525050565b6000602082019050620008b560008301846200088d565b92915050565b6000819050919050565b620008d081620008bb565b82525050565b620008e18162000652565b82525050565b600060a082019050620008fe6000830188620008c5565b6200090d6020830187620008c5565b6200091c6040830186620008c5565b6200092b6060830185620008d6565b6200093a60808301846200088d565b9695505050505050565b600082825260208201905092915050565b60005b838110156200097557808201518184015260208101905062000958565b60008484015250505050565b6000601f19601f8301169050919050565b60006200099f826200052c565b620009ab818562000944565b9350620009bd81856020860162000955565b620009c88162000981565b840191505092915050565b60006020820190508181036000830152620009ef818462000992565b905092915050565b600081519050919050565b6000819050602082019050919050565b600062000a208251620008bb565b80915050919050565b600062000a3682620009f7565b8262000a428462000a02565b905062000a4f8162000a12565b9250602082101562000a925762000a8d7fffffffffffffffffffffffffffffffffffffffffffffffffffffffffffffffff83602003600802620005ef565b831692505b5050919050565b60805160a05160c05160e05161010051610120516101405161333d62000af460003960006118d2015260006118970152600061202901526000612008015260006115c30152600061161901526000611642015261333d6000f3fe60806040526004361061014e5760003560e01c806379cc6790116100b6578063ab8114b11161006f578063ab8114b1146104ab578063caf3fb79146104d4578063d2b04fd6146104fd578063d505accf14610526578063dd62ed3e1461054f578063f2fde38b1461058c57610155565b806379cc6790146103815780637ecebe00146103aa57806384b0196e146103e75780638da5cb5b1461041857806395d89b4114610443578063a9059cbb1461046e57610155565b8063313ce56711610108578063313ce567146102855780633644e515146102b057806342966c68146102db5780636bf59c071461030457806370a082311461032d578063715018a61461036a57610155565b806207df301461015a57806305e573be1461019957806306fdde03146101b5578063095ea7b3146101e057806318160ddd1461021d57806323b872dd1461024857610155565b3661015557005b600080fd5b34801561016657600080fd5b50610181600480360381019061017c91906123ca565b6105b5565b60405161019093929190612434565b60405180910390f35b6101b360048036038101906101ae91906125b1565b610609565b005b3480156101c157600080fd5b506101ca610886565b6040516101d7919061269f565b60405180910390f35b3480156101ec57600080fd5b50610207600480360381019061020291906123ca565b610918565b60405161021491906126c1565b60405180910390f35b34801561022957600080fd5b5061023261093b565b60405161023f91906126dc565b60405180910390f35b34801561025457600080fd5b5061026f600480360381019061026a91906126f7565b610945565b60405161027c91906126c1565b60405180910390f35b34801561029157600080fd5b5061029a610974565b6040516102a79190612766565b60405180910390f35b3480156102bc57600080fd5b506102c561097d565b6040516102d2919061279a565b60405180910390f35b3480156102e757600080fd5b5061030260048036038101906102fd91906127b5565b61098c565b005b34801561031057600080fd5b5061032b600480360381019061032691906127e2565b6109a0565b005b34801561033957600080fd5b50610354600480360381019061034f919061283e565b610bef565b60405161036191906126dc565b60405180910390f35b34801561037657600080fd5b5061037f610c37565b005b34801561038d57600080fd5b506103a860048036038101906103a391906123ca565b610c4b565b005b3480156103b657600080fd5b506103d160048036038101906103cc919061283e565b610c6b565b6040516103de91906126dc565b60405180910390f35b3480156103f357600080fd5b506103fc610c7d565b60405161040f9796959493929190612973565b60405180910390f35b34801561042457600080fd5b5061042d610d27565b60405161043a91906129f7565b60405180910390f35b34801561044f57600080fd5b50610458610d51565b604051610465919061269f565b60405180910390f35b34801561047a57600080fd5b50610495600480360381019061049091906123ca565b610de3565b6040516104a291906126c1565b60405180910390f35b3480156104b757600080fd5b506104d260048036038101906104cd9190612a12565b610e06565b005b3480156104e057600080fd5b506104fb60048036038101906104f69190612b22565b611055565b005b34801561050957600080fd5b50610524600480360381019061051f9190612b6b565b61106e565b005b34801561053257600080fd5b5061054d60048036038101906105489190612c62565b611166565b005b34801561055b57600080fd5b5061057660048036038101906105719190612d04565b6112ae565b60405161058391906126dc565b60405180910390f35b34801561059857600080fd5b506105b360048036038101906105ae919061283e565b611335565b005b600a60205281600052604060002081815481106105d157600080fd5b9060005260206000209060030201600091509150508060000154908060010154908060020160009054906101000a900460ff16905083565b8060006106176009546113bb565b9050600061062e83836113f190919063ffffffff16565b90503373ffffffffffffffffffffffffffffffffffffffff168173ffffffffffffffffffffffffffffffffffffffff161461069e576040517f08c379a000000000000000000000000000000000000000000000000000000000815260040161069590612d90565b60405180910390fd5b6000600a60008873ffffffffffffffffffffffffffffffffffffffff1673ffffffffffffffffffffffffffffffffffffffff16815260200190815260200160002086815481106106f1576106f0612db0565b5b906000526020600020906003020190508060020160009054906101000a900460ff16610752576040517f08c379a000000000000000000000000000000000000000000000000000000000815260040161074990612e2b565b60405180910390fd5b8060010154341015610799576040517f08c379a000000000000000000000000000000000000000000000000000000000815260040161079090612e97565b60405180910390fd5b6107a83033836000015461141d565b8673ffffffffffffffffffffffffffffffffffffffff166108fc349081150290604051600060405180830381858888f193505050501580156107ee573d6000803e3d6000fd5b5060008160020160006101000a81548160ff0219169083151502179055508673ffffffffffffffffffffffffffffffffffffffff163373ffffffffffffffffffffffffffffffffffffffff167f0a9521815fb3c5bc7dd6f4c9f89dc270322e46b945b104c18981f81c3f2cd1aa836000015484600101548a60405161087593929190612eb7565b60405180910390a350505050505050565b60606003805461089590612f1d565b80601f01602080910402602001604051908101604052809291908181526020018280546108c190612f1d565b801561090e5780601f106108e35761010080835404028352916020019161090e565b820191906000526020600020905b8154815290600101906020018083116108f157829003601f168201915b5050505050905090565b600080610923611511565b9050610930818585611519565b600191505092915050565b6000600254905090565b600080610950611511565b905061095d85828561152b565b61096885858561141d565b60019150509392505050565b60006012905090565b60006109876115bf565b905090565b61099d610997611511565b82611676565b50565b8060006109ae6009546113bb565b905060006109c583836113f190919063ffffffff16565b90503373ffffffffffffffffffffffffffffffffffffffff168173ffffffffffffffffffffffffffffffffffffffff1614610a35576040517f08c379a0000000000000000000000000000000000000000000000000000000008152600401610a2c90612d90565b60405180910390fd5b600a60003373ffffffffffffffffffffffffffffffffffffffff1673ffffffffffffffffffffffffffffffffffffffff168152602001908152602001600020805490508510610ab9576040517f08c379a0000000000000000000000000000000000000000000000000000000008152600401610ab090612f9a565b60405180910390fd5b6000600a60003373ffffffffffffffffffffffffffffffffffffffff1673ffffffffffffffffffffffffffffffffffffffff1681526020019081526020016000208681548110610b0c57610b0b612db0565b5b906000526020600020906003020190508060020160009054906101000a900460ff16610b6d576040517f08c379a0000000000000000000000000000000000000000000000000000000008152600401610b649061302c565b60405180910390fd5b610b7c3033836000015461141d565b60008160020160006101000a81548160ff0219169083151502179055503373ffffffffffffffffffffffffffffffffffffffff167f53df6f80c006573b58e17d6440b870b40592881a21c175cde20004a4135dd46087604051610bdf91906126dc565b60405180910390a2505050505050565b60008060008373ffffffffffffffffffffffffffffffffffffffff1673ffffffffffffffffffffffffffffffffffffffff168152602001908152602001600020549050919050565b610c3f6116f8565b610c49600061177f565b565b610c5d82610c57611511565b8361152b565b610c678282611676565b5050565b6000610c7682611845565b9050919050565b600060608060008060006060610c9161188e565b610c996118c9565b46306000801b600067ffffffffffffffff811115610cba57610cb9612486565b5b604051908082528060200260200182016040528015610ce85781602001602082028036833780820191505090505b507f0f00000000000000000000000000000000000000000000000000000000000000959493929190965096509650965096509650965090919293949596565b6000600560009054906101000a900473ffffffffffffffffffffffffffffffffffffffff16905090565b606060048054610d6090612f1d565b80601f0160208091040260200160405190810160405280929190818152602001828054610d8c90612f1d565b8015610dd95780601f10610dae57610100808354040283529160200191610dd9565b820191906000526020600020905b815481529060010190602001808311610dbc57829003601f168201915b5050505050905090565b600080610dee611511565b9050610dfb81858561141d565b600191505092915050565b806000610e146009546113bb565b90506000610e2b83836113f190919063ffffffff16565b90503373ffffffffffffffffffffffffffffffffffffffff168173ffffffffffffffffffffffffffffffffffffffff1614610e9b576040517f08c379a0000000000000000000000000000000000000000000000000000000008152600401610e9290612d90565b60405180910390fd5b85610ea533610bef565b1015610ee6576040517f08c379a0000000000000000000000000000000000000000000000000000000008152600401610edd90613098565b60405180910390fd5b610ef133308861141d565b600a60003373ffffffffffffffffffffffffffffffffffffffff1673ffffffffffffffffffffffffffffffffffffffff1681526020019081526020016000206040518060600160405280888152602001878152602001600115158152509080600181540180825580915050600190039060005260206000209060030201600090919091909150600082015181600001556020820151816001015560408201518160020160006101000a81548160ff02191690831515021790555050503373ffffffffffffffffffffffffffffffffffffffff167fda2d7fa13c443a4ce51bb68b8ce92f41fac2c10d9d5bdb6a9e9a91429020b7c387876001600a60003373ffffffffffffffffffffffffffffffffffffffff1673ffffffffffffffffffffffffffffffffffffffff1681526020019081526020016000208054905061103691906130e7565b60405161104593929190612eb7565b60405180910390a2505050505050565b61105d6116f8565b808051906020012060098190555050565b80600061107c6009546113bb565b9050600061109383836113f190919063ffffffff16565b90503373ffffffffffffffffffffffffffffffffffffffff168173ffffffffffffffffffffffffffffffffffffffff1614611103576040517f08c379a00000000000000000000000000000000000000000000000000000000081526004016110fa90612d90565b60405180910390fd5b61110d8787611904565b8673ffffffffffffffffffffffffffffffffffffffff167fde5d6fd45e32fffb472bcbaeedf6a2e3944633c9701eec7d99adfa07ad6104c1878760405161115592919061311b565b60405180910390a250505050505050565b834211156111ab57836040517f627913020000000000000000000000000000000000000000000000000000000081526004016111a291906126dc565b60405180910390fd5b60007f6e71edae12b1b97f4d1f60370fef10105fa2faae0126114a169c64845d6126c98888886111da8c611986565b896040516020016111f09695949392919061314b565b6040516020818303038152906040528051906020012090506000611213826119dd565b90506000611223828787876119f7565b90508973ffffffffffffffffffffffffffffffffffffffff168173ffffffffffffffffffffffffffffffffffffffff161461129757808a6040517f4b800e4600000000000000000000000000000000000000000000000000000000815260040161128e9291906131ac565b60405180910390fd5b6112a28a8a8a611519565b50505050505050505050565b6000600160008473ffffffffffffffffffffffffffffffffffffffff1673ffffffffffffffffffffffffffffffffffffffff16815260200190815260200160002060008373ffffffffffffffffffffffffffffffffffffffff1673ffffffffffffffffffffffffffffffffffffffff16815260200190815260200160002054905092915050565b61133d6116f8565b600073ffffffffffffffffffffffffffffffffffffffff168173ffffffffffffffffffffffffffffffffffffffff16036113af5760006040517f1e4fbdf70000000000000000000000000000000000000000000000000000000081526004016113a691906129f7565b60405180910390fd5b6113b88161177f565b50565b60007f19457468657265756d205369676e6564204d6573736167653a0a33320000000060005281601c52603c6000209050919050565b6000806000806114018686611a27565b9250925092506114118282611a83565b82935050505092915050565b600073ffffffffffffffffffffffffffffffffffffffff168373ffffffffffffffffffffffffffffffffffffffff160361148f5760006040517f96c6fd1e00000000000000000000000000000000000000000000000000000000815260040161148691906129f7565b60405180910390fd5b600073ffffffffffffffffffffffffffffffffffffffff168273ffffffffffffffffffffffffffffffffffffffff16036115015760006040517fec442f050000000000000000000000000000000000000000000000000000000081526004016114f891906129f7565b60405180910390fd5b61150c838383611be7565b505050565b600033905090565b6115268383836001611e0c565b505050565b600061153784846112ae565b90507fffffffffffffffffffffffffffffffffffffffffffffffffffffffffffffffff81146115b957818110156115a9578281836040517ffb8f41b20000000000000000000000000000000000000000000000000000000081526004016115a0939291906131d5565b60405180910390fd5b6115b884848484036000611e0c565b5b50505050565b60007f000000000000000000000000000000000000000000000000000000000000000073ffffffffffffffffffffffffffffffffffffffff163073ffffffffffffffffffffffffffffffffffffffff1614801561163b57507f000000000000000000000000000000000000000000000000000000000000000046145b15611668577f00000000000000000000000000000000000000000000000000000000000000009050611673565b611670611fe3565b90505b90565b600073ffffffffffffffffffffffffffffffffffffffff168273ffffffffffffffffffffffffffffffffffffffff16036116e85760006040517f96c6fd1e0000000000000000000000000000000000000000000000000000000081526004016116df91906129f7565b60405180910390fd5b6116f482600083611be7565b5050565b611700611511565b73ffffffffffffffffffffffffffffffffffffffff1661171e610d27565b73ffffffffffffffffffffffffffffffffffffffff161461177d57611741611511565b6040517f118cdaa700000000000000000000000000000000000000000000000000000000815260040161177491906129f7565b60405180910390fd5b565b6000600560009054906101000a900473ffffffffffffffffffffffffffffffffffffffff16905081600560006101000a81548173ffffffffffffffffffffffffffffffffffffffff021916908373ffffffffffffffffffffffffffffffffffffffff1602179055508173ffffffffffffffffffffffffffffffffffffffff168173ffffffffffffffffffffffffffffffffffffffff167f8be0079c531659141344cd1fd0a4f28419497f9722a3daafe3b4186f6b6457e060405160405180910390a35050565b6000600860008373ffffffffffffffffffffffffffffffffffffffff1673ffffffffffffffffffffffffffffffffffffffff168152602001908152602001600020549050919050565b60606118c460067f000000000000000000000000000000000000000000000000000000000000000061207990919063ffffffff16565b905090565b60606118ff60077f000000000000000000000000000000000000000000000000000000000000000061207990919063ffffffff16565b905090565b600073ffffffffffffffffffffffffffffffffffffffff168273ffffffffffffffffffffffffffffffffffffffff16036119765760006040517fec442f0500000000000000000000000000000000000000000000000000000000815260040161196d91906129f7565b60405180910390fd5b61198260008383611be7565b5050565b6000600860008373ffffffffffffffffffffffffffffffffffffffff1673ffffffffffffffffffffffffffffffffffffffff1681526020019081526020016000206000815480929190600101919050559050919050565b60006119f06119ea6115bf565b83612129565b9050919050565b600080600080611a098888888861216a565b925092509250611a198282611a83565b829350505050949350505050565b60008060006041845103611a6c5760008060006020870151925060408701519150606087015160001a9050611a5e8882858561216a565b955095509550505050611a7c565b60006002855160001b9250925092505b9250925092565b60006003811115611a9757611a9661320c565b5b826003811115611aaa57611aa961320c565b5b0315611be35760016003811115611ac457611ac361320c565b5b826003811115611ad757611ad661320c565b5b03611b0e576040517ff645eedf00000000000000000000000000000000000000000000000000000000815260040160405180910390fd5b60026003811115611b2257611b2161320c565b5b826003811115611b3557611b3461320c565b5b03611b7a578060001c6040517ffce698f7000000000000000000000000000000000000000000000000000000008152600401611b7191906126dc565b60405180910390fd5b600380811115611b8d57611b8c61320c565b5b826003811115611ba057611b9f61320c565b5b03611be257806040517fd78bce0c000000000000000000000000000000000000000000000000000000008152600401611bd9919061279a565b60405180910390fd5b5b5050565b600073ffffffffffffffffffffffffffffffffffffffff168373ffffffffffffffffffffffffffffffffffffffff1603611c39578060026000828254611c2d919061323b565b92505081905550611d0c565b60008060008573ffffffffffffffffffffffffffffffffffffffff1673ffffffffffffffffffffffffffffffffffffffff16815260200190815260200160002054905081811015611cc5578381836040517fe450d38c000000000000000000000000000000000000000000000000000000008152600401611cbc939291906131d5565b60405180910390fd5b8181036000808673ffffffffffffffffffffffffffffffffffffffff1673ffffffffffffffffffffffffffffffffffffffff16815260200190815260200160002081905550505b600073ffffffffffffffffffffffffffffffffffffffff168273ffffffffffffffffffffffffffffffffffffffff1603611d555780600260008282540392505081905550611da2565b806000808473ffffffffffffffffffffffffffffffffffffffff1673ffffffffffffffffffffffffffffffffffffffff168152602001908152602001600020600082825401925050819055505b8173ffffffffffffffffffffffffffffffffffffffff168373ffffffffffffffffffffffffffffffffffffffff167fddf252ad1be2c89b69c2b068fc378daa952ba7f163c4a11628f55a4df523b3ef83604051611dff91906126dc565b60405180910390a3505050565b600073ffffffffffffffffffffffffffffffffffffffff168473ffffffffffffffffffffffffffffffffffffffff1603611e7e5760006040517fe602df05000000000000000000000000000000000000000000000000000000008152600401611e7591906129f7565b60405180910390fd5b600073ffffffffffffffffffffffffffffffffffffffff168373ffffffffffffffffffffffffffffffffffffffff1603611ef05760006040517f94280d62000000000000000000000000000000000000000000000000000000008152600401611ee791906129f7565b60405180910390fd5b81600160008673ffffffffffffffffffffffffffffffffffffffff1673ffffffffffffffffffffffffffffffffffffffff16815260200190815260200160002060008573ffffffffffffffffffffffffffffffffffffffff1673ffffffffffffffffffffffffffffffffffffffff168152602001908152602001600020819055508015611fdd578273ffffffffffffffffffffffffffffffffffffffff168473ffffffffffffffffffffffffffffffffffffffff167f8c5be1e5ebec7d5bd14f71427d1e84f3dd0314c0f7b2291e5b200ac8c7c3b92584604051611fd491906126dc565b60405180910390a35b50505050565b60007f8b73c3c69bb8fe3d512ecc4cf759cc79239f7b179b0ffacaa9a75d522b39400f7f00000000000000000000000000000000000000000000000000000000000000007f0000000000000000000000000000000000000000000000000000000000000000463060405160200161205e95949392919061326f565b60405160208183030381529060405280519060200120905090565b606060ff60001b83146120965761208f8361225e565b9050612123565b8180546120a290612f1d565b80601f01602080910402602001604051908101604052809291908181526020018280546120ce90612f1d565b801561211b5780601f106120f05761010080835404028352916020019161211b565b820191906000526020600020905b8154815290600101906020018083116120fe57829003601f168201915b505050505090505b92915050565b60006040517f190100000000000000000000000000000000000000000000000000000000000081528360028201528260228201526042812091505092915050565b60008060007f7fffffffffffffffffffffffffffffff5d576e7357a4501ddfe92f46681b20a08460001c11156121aa576000600385925092509250612254565b6000600188888888604051600081526020016040526040516121cf94939291906132c2565b6020604051602081039080840390855afa1580156121f1573d6000803e3d6000fd5b505050602060405103519050600073ffffffffffffffffffffffffffffffffffffffff168173ffffffffffffffffffffffffffffffffffffffff160361224557600060016000801b93509350935050612254565b8060008060001b935093509350505b9450945094915050565b6060600061226b836122d2565b90506000602067ffffffffffffffff81111561228a57612289612486565b5b6040519080825280601f01601f1916602001820160405280156122bc5781602001600182028036833780820191505090505b5090508181528360208201528092505050919050565b60008060ff8360001c169050601f811115612319576040517fb3512b0c00000000000000000000000000000000000000000000000000000000815260040160405180910390fd5b80915050919050565b6000604051905090565b600080fd5b600080fd5b600073ffffffffffffffffffffffffffffffffffffffff82169050919050565b600061236182612336565b9050919050565b61237181612356565b811461237c57600080fd5b50565b60008135905061238e81612368565b92915050565b6000819050919050565b6123a781612394565b81146123b257600080fd5b50565b6000813590506123c48161239e565b92915050565b600080604083850312156123e1576123e061232c565b5b60006123ef8582860161237f565b9250506020612400858286016123b5565b9150509250929050565b61241381612394565b82525050565b60008115159050919050565b61242e81612419565b82525050565b6000606082019050612449600083018661240a565b612456602083018561240a565b6124636040830184612425565b949350505050565b600080fd5b600080fd5b6000601f19601f8301169050919050565b7f4e487b7100000000000000000000000000000000000000000000000000000000600052604160045260246000fd5b6124be82612475565b810181811067ffffffffffffffff821117156124dd576124dc612486565b5b80604052505050565b60006124f0612322565b90506124fc82826124b5565b919050565b600067ffffffffffffffff82111561251c5761251b612486565b5b61252582612475565b9050602081019050919050565b82818337600083830152505050565b600061255461254f84612501565b6124e6565b9050828152602081018484840111156125705761256f612470565b5b61257b848285612532565b509392505050565b600082601f8301126125985761259761246b565b5b81356125a8848260208601612541565b91505092915050565b6000806000606084860312156125ca576125c961232c565b5b60006125d88682870161237f565b93505060206125e9868287016123b5565b925050604084013567ffffffffffffffff81111561260a57612609612331565b5b61261686828701612583565b9150509250925092565b600081519050919050565b600082825260208201905092915050565b60005b8381101561265a57808201518184015260208101905061263f565b60008484015250505050565b600061267182612620565b61267b818561262b565b935061268b81856020860161263c565b61269481612475565b840191505092915050565b600060208201905081810360008301526126b98184612666565b905092915050565b60006020820190506126d66000830184612425565b92915050565b60006020820190506126f1600083018461240a565b92915050565b6000806000606084860312156127105761270f61232c565b5b600061271e8682870161237f565b935050602061272f8682870161237f565b9250506040612740868287016123b5565b9150509250925092565b600060ff82169050919050565b6127608161274a565b82525050565b600060208201905061277b6000830184612757565b92915050565b6000819050919050565b61279481612781565b82525050565b60006020820190506127af600083018461278b565b92915050565b6000602082840312156127cb576127ca61232c565b5b60006127d9848285016123b5565b91505092915050565b600080604083850312156127f9576127f861232c565b5b6000612807858286016123b5565b925050602083013567ffffffffffffffff81111561282857612827612331565b5b61283485828601612583565b9150509250929050565b6000602082840312156128545761285361232c565b5b60006128628482850161237f565b91505092915050565b60007fff0000000000000000000000000000000000000000000000000000000000000082169050919050565b6128a08161286b565b82525050565b6128af81612356565b82525050565b600081519050919050565b600082825260208201905092915050565b6000819050602082019050919050565b6128ea81612394565b82525050565b60006128fc83836128e1565b60208301905092915050565b6000602082019050919050565b6000612920826128b5565b61292a81856128c0565b9350612935836128d1565b8060005b8381101561296657815161294d88826128f0565b975061295883612908565b925050600181019050612939565b5085935050505092915050565b600060e082019050612988600083018a612897565b818103602083015261299a8189612666565b905081810360408301526129ae8188612666565b90506129bd606083018761240a565b6129ca60808301866128a6565b6129d760a083018561278b565b81810360c08301526129e98184612915565b905098975050505050505050565b6000602082019050612a0c60008301846128a6565b92915050565b600080600060608486031215612a2b57612a2a61232c565b5b6000612a39868287016123b5565b9350506020612a4a868287016123b5565b925050604084013567ffffffffffffffff811115612a6b57612a6a612331565b5b612a7786828701612583565b9150509250925092565b600067ffffffffffffffff821115612a9c57612a9b612486565b5b612aa582612475565b9050602081019050919050565b6000612ac5612ac084612a81565b6124e6565b905082815260208101848484011115612ae157612ae0612470565b5b612aec848285612532565b509392505050565b600082601f830112612b0957612b0861246b565b5b8135612b19848260208601612ab2565b91505092915050565b600060208284031215612b3857612b3761232c565b5b600082013567ffffffffffffffff811115612b5657612b55612331565b5b612b6284828501612af4565b91505092915050565b60008060008060808587031215612b8557612b8461232c565b5b6000612b938782880161237f565b9450506020612ba4878288016123b5565b935050604085013567ffffffffffffffff811115612bc557612bc4612331565b5b612bd187828801612af4565b925050606085013567ffffffffffffffff811115612bf257612bf1612331565b5b612bfe87828801612583565b91505092959194509250565b612c138161274a565b8114612c1e57600080fd5b50565b600081359050612c3081612c0a565b92915050565b612c3f81612781565b8114612c4a57600080fd5b50565b600081359050612c5c81612c36565b92915050565b600080600080600080600060e0888a031215612c8157612c8061232c565b5b6000612c8f8a828b0161237f565b9750506020612ca08a828b0161237f565b9650506040612cb18a828b016123b5565b9550506060612cc28a828b016123b5565b9450506080612cd38a828b01612c21565b93505060a0612ce48a828b01612c4d565b92505060c0612cf58a828b01612c4d565b91505092959891949750929550565b60008060408385031215612d1b57612d1a61232c565b5b6000612d298582860161237f565b9250506020612d3a8582860161237f565b9150509250929050565b7f496e76616c6964207369676e6174757265000000000000000000000000000000600082015250565b6000612d7a60118361262b565b9150612d8582612d44565b602082019050919050565b60006020820190508181036000830152612da981612d6d565b9050919050565b7f4e487b7100000000000000000000000000000000000000000000000000000000600052603260045260246000fd5b7f4c697374696e67206973206e6f74206163746976650000000000000000000000600082015250565b6000612e1560158361262b565b9150612e2082612ddf565b602082019050919050565b60006020820190508181036000830152612e4481612e08565b9050919050565b7f496e73756666696369656e74204554482073656e740000000000000000000000600082015250565b6000612e8160158361262b565b9150612e8c82612e4b565b602082019050919050565b60006020820190508181036000830152612eb081612e74565b9050919050565b6000606082019050612ecc600083018661240a565b612ed9602083018561240a565b612ee6604083018461240a565b949350505050565b7f4e487b7100000000000000000000000000000000000000000000000000000000600052602260045260246000fd5b60006002820490506001821680612f3557607f821691505b602082108103612f4857612f47612eee565b5b50919050565b7f496e76616c6964206c697374696e6720696e6465780000000000000000000000600082015250565b6000612f8460158361262b565b9150612f8f82612f4e565b602082019050919050565b60006020820190508181036000830152612fb381612f77565b9050919050565b7f43616e6e6f742064656c65746520616e20696e616374697665206c697374696e60008201527f6700000000000000000000000000000000000000000000000000000000000000602082015250565b600061301660218361262b565b915061302182612fba565b604082019050919050565b6000602082019050818103600083015261304581613009565b9050919050565b7f496e73756666696369656e742043544b4e2062616c616e636500000000000000600082015250565b600061308260198361262b565b915061308d8261304c565b602082019050919050565b600060208201905081810360008301526130b181613075565b9050919050565b7f4e487b7100000000000000000000000000000000000000000000000000000000600052601160045260246000fd5b60006130f282612394565b91506130fd83612394565b9250828203905081811115613115576131146130b8565b5b92915050565b6000604082019050613130600083018561240a565b81810360208301526131428184612666565b90509392505050565b600060c082019050613160600083018961278b565b61316d60208301886128a6565b61317a60408301876128a6565b613187606083018661240a565b613194608083018561240a565b6131a160a083018461240a565b979650505050505050565b60006040820190506131c160008301856128a6565b6131ce60208301846128a6565b9392505050565b60006060820190506131ea60008301866128a6565b6131f7602083018561240a565b613204604083018461240a565b949350505050565b7f4e487b7100000000000000000000000000000000000000000000000000000000600052602160045260246000fd5b600061324682612394565b915061325183612394565b9250828201905080821115613269576132686130b8565b5b92915050565b600060a082019050613284600083018861278b565b613291602083018761278b565b61329e604083018661278b565b6132ab606083018561240a565b6132b860808301846128a6565b9695505050505050565b60006080820190506132d7600083018761278b565b6132e46020830186612757565b6132f1604083018561278b565b6132fe606083018461278b565b9594505050505056fea2646970667358221220c6fa98b7aaf59c404baebe81032382252c846aea683a0c5ecbef77544c45081f64736f6c63430008180033",
  "linkReferences": {},
  "deployedLinkReferences": {}
}